{
  "contractName": "Election",
  "abi": [
    {
      "inputs": [],
      "stateMutability": "nonpayable",
      "type": "constructor"
    },
    {
      "anonymous": false,
      "inputs": [
        {
          "indexed": false,
          "internalType": "address",
          "name": "account",
          "type": "address"
        }
      ],
      "name": "Paused",
      "type": "event"
    },
    {
      "anonymous": false,
      "inputs": [
        {
          "indexed": false,
          "internalType": "address",
          "name": "account",
          "type": "address"
        }
      ],
      "name": "Unpaused",
      "type": "event"
    },
    {
      "inputs": [
        {
          "internalType": "uint256",
          "name": "",
          "type": "uint256"
        }
      ],
      "name": "candidats",
      "outputs": [
        {
          "internalType": "uint256",
          "name": "num",
          "type": "uint256"
        },
        {
          "internalType": "string",
          "name": "nom",
          "type": "string"
        },
        {
          "internalType": "uint256",
          "name": "nbrVotes",
          "type": "uint256"
        }
      ],
      "stateMutability": "view",
      "type": "function"
    },
    {
      "inputs": [
        {
          "internalType": "address",
          "name": "",
          "type": "address"
        }
      ],
      "name": "citoyens",
      "outputs": [
        {
          "internalType": "bool",
          "name": "aVote",
          "type": "bool"
        },
        {
          "internalType": "uint256",
          "name": "vote",
          "type": "uint256"
        },
        {
          "internalType": "bool",
          "name": "autorise",
          "type": "bool"
        }
      ],
      "stateMutability": "view",
      "type": "function"
    },
    {
      "inputs": [],
      "name": "dateDebut",
      "outputs": [
        {
          "internalType": "uint256",
          "name": "",
          "type": "uint256"
        }
      ],
      "stateMutability": "view",
      "type": "function"
    },
    {
      "inputs": [],
      "name": "dateFin",
      "outputs": [
        {
          "internalType": "uint256",
          "name": "",
          "type": "uint256"
        }
      ],
      "stateMutability": "view",
      "type": "function"
    },
    {
      "inputs": [],
      "name": "nbrCandidats",
      "outputs": [
        {
          "internalType": "uint256",
          "name": "",
          "type": "uint256"
        }
      ],
      "stateMutability": "view",
      "type": "function"
    },
    {
      "inputs": [],
      "name": "owner",
      "outputs": [
        {
          "internalType": "address",
          "name": "",
          "type": "address"
        }
      ],
      "stateMutability": "view",
      "type": "function"
    },
    {
      "inputs": [],
      "name": "paused",
      "outputs": [
        {
          "internalType": "bool",
          "name": "",
          "type": "bool"
        }
      ],
      "stateMutability": "view",
      "type": "function"
    },
    {
      "inputs": [],
      "name": "totalVotes",
      "outputs": [
        {
          "internalType": "uint256",
          "name": "",
          "type": "uint256"
        }
      ],
      "stateMutability": "view",
      "type": "function"
    },
    {
      "inputs": [
        {
          "internalType": "address",
          "name": "_personne",
          "type": "address"
        }
      ],
      "name": "donnerDroitDeVote",
      "outputs": [],
      "stateMutability": "nonpayable",
      "type": "function"
    },
    {
      "inputs": [
        {
          "internalType": "uint256",
          "name": "_bulletinNum",
          "type": "uint256"
        }
      ],
      "name": "voter",
      "outputs": [],
      "stateMutability": "nonpayable",
      "type": "function"
    },
    {
      "inputs": [],
      "name": "end",
      "outputs": [],
      "stateMutability": "nonpayable",
      "type": "function"
    }
  ],
  "bytecode": "0x60806040523480156200001157600080fd5b5060008060006101000a81548160ff02191690831515021790555033600060016101000a81548173ffffffffffffffffffffffffffffffffffffffff021916908373ffffffffffffffffffffffffffffffffffffffff1602179055506360d0aefb600581905550601e4262000087919062000255565b600681905550620000d36040518060400160405280600f81526020017f456d6d616e75656c204d6163726f6e00000000000000000000000000000000008152506200011f60201b60201c565b620001196040518060400160405280600d81526020017f4d6172696e65204c652050656e000000000000000000000000000000000000008152506200011f60201b60201c565b6200039e565b600460008154809291906200013490620002f2565b919050555060405180606001604052806004548152602001828152602001600081525060036000600454815260200190815260200160002060008201518160000155602082015181600101908051906020019062000194929190620001a5565b506040820151816002015590505050565b828054620001b390620002bc565b90600052602060002090601f016020900481019282620001d7576000855562000223565b82601f10620001f257805160ff191683800117855562000223565b8280016001018555821562000223579182015b828111156200022257825182559160200191906001019062000205565b5b50905062000232919062000236565b5090565b5b808211156200025157600081600090555060010162000237565b5090565b60006200026282620002b2565b91506200026f83620002b2565b9250827fffffffffffffffffffffffffffffffffffffffffffffffffffffffffffffffff03821115620002a757620002a662000340565b5b828201905092915050565b6000819050919050565b60006002820490506001821680620002d557607f821691505b60208210811415620002ec57620002eb6200036f565b5b50919050565b6000620002ff82620002b2565b91507fffffffffffffffffffffffffffffffffffffffffffffffffffffffffffffffff82141562000335576200033462000340565b5b600182019050919050565b7f4e487b7100000000000000000000000000000000000000000000000000000000600052601160045260246000fd5b7f4e487b7100000000000000000000000000000000000000000000000000000000600052602260045260246000fd5b610f5980620003ae6000396000f3fe608060405234801561001057600080fd5b50600436106100a95760003560e01c8063647aa95311610071578063647aa953146101425780638da5cb5b146101745780639ccca72914610192578063ab8ed1ba146101c4578063d48f7e81146101e0578063efbe1c1c146101fe576100a9565b80630d15fd77146100ae578063183a682a146100cc5780632c77600d146100e857806356aeef4c146101065780635c975abb14610124575b600080fd5b6100b6610208565b6040516100c39190610bae565b60405180910390f35b6100e660048036038101906100e191906108ef565b61020e565b005b6100f0610344565b6040516100fd9190610bae565b60405180910390f35b61010e61034a565b60405161011b9190610bae565b60405180910390f35b61012c610350565b6040516101399190610a9c565b60405180910390f35b61015c6004803603810190610157919061091c565b610366565b60405161016b93929190610bc9565b60405180910390f35b61017c610418565b6040516101899190610a81565b60405180910390f35b6101ac60048036038101906101a791906108ef565b61043e565b6040516101bb93929190610ab7565b60405180910390f35b6101de60048036038101906101d9919061091c565b610482565b005b6101e86106ef565b6040516101f59190610bae565b60405180910390f35b6102066106f5565b005b60015481565b610216610350565b15610256576040517f08c379a000000000000000000000000000000000000000000000000000000000815260040161024d90610b6e565b60405180910390fd5b600060019054906101000a900473ffffffffffffffffffffffffffffffffffffffff1673ffffffffffffffffffffffffffffffffffffffff163373ffffffffffffffffffffffffffffffffffffffff16146102e6576040517f08c379a00000000000000000000000000000000000000000000000000000000081526004016102dd90610b2e565b60405180910390fd5b6001600260008373ffffffffffffffffffffffffffffffffffffffff1673ffffffffffffffffffffffffffffffffffffffff16815260200190815260200160002060020160006101000a81548160ff02191690831515021790555050565b60065481565b60045481565b60008060009054906101000a900460ff16905090565b600360205280600052604060002060009150905080600001549080600101805461038f90610c9e565b80601f01602080910402602001604051908101604052809291908181526020018280546103bb90610c9e565b80156104085780601f106103dd57610100808354040283529160200191610408565b820191906000526020600020905b8154815290600101906020018083116103eb57829003601f168201915b5050505050908060020154905083565b600060019054906101000a900473ffffffffffffffffffffffffffffffffffffffff1681565b60026020528060005260406000206000915090508060000160009054906101000a900460ff16908060010154908060020160009054906101000a900460ff16905083565b61048a610350565b156104ca576040517f08c379a00000000000000000000000000000000000000000000000000000000081526004016104c190610b6e565b60405180910390fd5b6005544210156104d957600080fd5b60065442106104e757600080fd5b600260003373ffffffffffffffffffffffffffffffffffffffff1673ffffffffffffffffffffffffffffffffffffffff16815260200190815260200160002060020160009054906101000a900460ff16610576576040517f08c379a000000000000000000000000000000000000000000000000000000000815260040161056d90610aee565b60405180910390fd5b600260003373ffffffffffffffffffffffffffffffffffffffff1673ffffffffffffffffffffffffffffffffffffffff16815260200190815260200160002060000160009054906101000a900460ff1615610606576040517f08c379a00000000000000000000000000000000000000000000000000000000081526004016105fd90610b0e565b60405180910390fd5b60036000828152602001908152602001600020600201600081548092919061062d90610cd0565b91905055506001600081548092919061064590610cd0565b919050555080600260003373ffffffffffffffffffffffffffffffffffffffff1673ffffffffffffffffffffffffffffffffffffffff168152602001908152602001600020600101819055506001600260003373ffffffffffffffffffffffffffffffffffffffff1673ffffffffffffffffffffffffffffffffffffffff16815260200190815260200160002060000160006101000a81548160ff02191690831515021790555050565b60055481565b6106fd610350565b1561073d576040517f08c379a000000000000000000000000000000000000000000000000000000000815260040161073490610b6e565b60405180910390fd5b600060019054906101000a900473ffffffffffffffffffffffffffffffffffffffff1673ffffffffffffffffffffffffffffffffffffffff163373ffffffffffffffffffffffffffffffffffffffff16146107cd576040517f08c379a00000000000000000000000000000000000000000000000000000000081526004016107c490610b4e565b60405180910390fd5b6006544211610811576040517f08c379a000000000000000000000000000000000000000000000000000000000815260040161080890610b8e565b60405180910390fd5b61081961081b565b565b610823610350565b15610863576040517f08c379a000000000000000000000000000000000000000000000000000000000815260040161085a90610b6e565b60405180910390fd5b60016000806101000a81548160ff0219169083151502179055507f62e78cea01bee320cd4e420270b5ea74000d11b0c9f74754ebdbfc544b05a2586108a66108bd565b6040516108b39190610a81565b60405180910390a1565b600033905090565b6000813590506108d481610ef5565b92915050565b6000813590506108e981610f0c565b92915050565b60006020828403121561090557610904610d77565b5b6000610913848285016108c5565b91505092915050565b60006020828403121561093257610931610d77565b5b6000610940848285016108da565b91505092915050565b61095281610c23565b82525050565b61096181610c35565b82525050565b600061097282610c07565b61097c8185610c12565b935061098c818560208601610c6b565b61099581610d7c565b840191505092915050565b60006109ad601483610c12565b91506109b882610d8d565b602082019050919050565b60006109d0600b83610c12565b91506109db82610db6565b602082019050919050565b60006109f3602f83610c12565b91506109fe82610ddf565b604082019050919050565b6000610a16602d83610c12565b9150610a2182610e2e565b604082019050919050565b6000610a39601083610c12565b9150610a4482610e7d565b602082019050919050565b6000610a5c603b83610c12565b9150610a6782610ea6565b604082019050919050565b610a7b81610c61565b82525050565b6000602082019050610a966000830184610949565b92915050565b6000602082019050610ab16000830184610958565b92915050565b6000606082019050610acc6000830186610958565b610ad96020830185610a72565b610ae66040830184610958565b949350505050565b60006020820190508181036000830152610b07816109a0565b9050919050565b60006020820190508181036000830152610b27816109c3565b9050919050565b60006020820190508181036000830152610b47816109e6565b9050919050565b60006020820190508181036000830152610b6781610a09565b9050919050565b60006020820190508181036000830152610b8781610a2c565b9050919050565b60006020820190508181036000830152610ba781610a4f565b9050919050565b6000602082019050610bc36000830184610a72565b92915050565b6000606082019050610bde6000830186610a72565b8181036020830152610bf08185610967565b9050610bff6040830184610a72565b949350505050565b600081519050919050565b600082825260208201905092915050565b6000610c2e82610c41565b9050919050565b60008115159050919050565b600073ffffffffffffffffffffffffffffffffffffffff82169050919050565b6000819050919050565b60005b83811015610c89578082015181840152602081019050610c6e565b83811115610c98576000848401525b50505050565b60006002820490506001821680610cb657607f821691505b60208210811415610cca57610cc9610d48565b5b50919050565b6000610cdb82610c61565b91507fffffffffffffffffffffffffffffffffffffffffffffffffffffffffffffffff821415610d0e57610d0d610d19565b5b600182019050919050565b7f4e487b7100000000000000000000000000000000000000000000000000000000600052601160045260246000fd5b7f4e487b7100000000000000000000000000000000000000000000000000000000600052602260045260246000fd5b600080fd5b6000601f19601f8301169050919050565b7f706173206c652064726f697420646520766f7465000000000000000000000000600082015250565b7f612064656a6120766f7465000000000000000000000000000000000000000000600082015250565b7f7365756c206c652070726f7072696574616972652070657574206175746f726960008201527f7365722071716e206120766f7465720000000000000000000000000000000000602082015250565b7f7365756c206c652070726f7072696574616972652070657574207465726d696e60008201527f6572206c20656c656374696f6e00000000000000000000000000000000000000602082015250565b7f5061757361626c653a2070617573656400000000000000000000000000000000600082015250565b7f7065757420706173206172726574657220766f74652074616e7420717565207060008201527f6572696f646520656c6563746f72616c65207061732066696e69650000000000602082015250565b610efe81610c23565b8114610f0957600080fd5b50565b610f1581610c61565b8114610f2057600080fd5b5056fea2646970667358221220af382e5b5141fa7bff7b98ddae8d1e8115fdd42dd74f226966cdc592793273ae64736f6c63430008050033",
  "immutableReferences": {},
  "source": "// SPDX-License-Identifier: MIT\r\npragma solidity >0.5.1 <0.8.6;\r\n\r\nimport \"../node_modules/@openzeppelin/contracts/security/Pausable.sol\";\r\n\r\ncontract Election is Pausable {\r\n\r\n    address public owner;\r\n    \r\n    struct Citoyen {\r\n        bool aVote;\r\n        uint vote;\r\n        bool autorise;\r\n    }\r\n\r\n    struct Candidat {\r\n        uint num;\r\n        string nom;\r\n        uint nbrVotes;\r\n    }\r\n\r\n    uint public totalVotes;\r\n    \r\n    mapping (address => Citoyen) public citoyens;\r\n    mapping (uint => Candidat) public candidats;\r\n    uint public nbrCandidats;\r\n\r\n    uint public dateDebut;\r\n    uint public dateFin;\r\n\r\n    constructor () {\r\n        owner = msg.sender;\r\n\r\n        dateDebut = 1624289019; //21/06/2021 a 17h23 (test)\r\n        dateFin = block.timestamp + 30; //30 sec apres le deploiement (test)\r\n\r\n        ajoutCandidat('Emmanuel Macron');\r\n        ajoutCandidat('Marine Le Pen');\r\n    }\r\n\r\n    function donnerDroitDeVote(address _personne) whenNotPaused external {\r\n        require(msg.sender == owner, 'seul le proprietaire peut autoriser qqn a voter');\r\n        citoyens[_personne].autorise = true;\r\n    }\r\n\r\n    function voter(uint _bulletinNum) whenNotPaused external {\r\n        require(block.timestamp >= dateDebut);\r\n        require(block.timestamp < dateFin);\r\n        require(citoyens[msg.sender].autorise, 'pas le droit de vote');\r\n        require(!citoyens[msg.sender].aVote, 'a deja vote');\r\n\r\n        candidats[_bulletinNum].nbrVotes ++;\r\n        totalVotes ++;\r\n\r\n        citoyens[msg.sender].vote = _bulletinNum;\r\n        citoyens[msg.sender].aVote = true;\r\n    }\r\n\r\n    function ajoutCandidat(string memory _nom) internal {\r\n        nbrCandidats++;\r\n        candidats[nbrCandidats] = Candidat(nbrCandidats, _nom, 0);\r\n    }\r\n    \r\n    function end() whenNotPaused external{\r\n        require(msg.sender == owner, 'seul le proprietaire peut terminer l election');\r\n        require(block.timestamp > dateFin, 'peut pas arreter vote tant que periode electorale pas finie');\r\n        _pause();\r\n    }\r\n}\r\n",
  "sourcePath": "C:/Users/Jo le Rigolo/Documents/EFREI/projets/projet-mastercamp/frontend/contracts/Election.sol",
  "compiler": {
    "name": "solc",
    "version": "0.8.5+commit.a4f2e591.Emscripten.clang"
  },
  "schemaVersion": "3.4.1",
  "updatedAt": "2021-06-22T10:50:50.109Z",
  "devdoc": {
    "kind": "dev",
    "methods": {
      "paused()": {
        "details": "Returns true if the contract is paused, and false otherwise."
      }
    },
    "version": 1
  },
  "userdoc": {
    "kind": "user",
    "methods": {},
    "version": 1
  }
}